:030000000206EC09
:03002B0002039B32
:10002E00758920758DF7758BF7D28E759850D2998C
:10003E00223099FDC299F59922E493600612003F91
:04004E00A380F62273
:10005200C0E0C0D0C000C001C002E4F538F539F5F7
:100062003AF53BF53C7A20E533A2E779047830E6AD
:1000720033F608D9FA79057838E636D4F608D9F98C
:10008200DAE5D002D001D000D0D0D0E022C0E0C06A
:10009200D0C000C001C002E4F538F539F53AF53BAD
:1000A200F53C7A20E533A2E779047830E633F608A6
:1000B200D9FA79057838C0D0E6243320E70224D073
:1000C20020E30224FDD0D033F608D9EADAD6D002F2
:1000D200D001D000D0D0D0E022C0E0C0D0C000C05B
:1000E20001C0027A207905C3783CE613C0D030E71C
:1000F2000224D030E30224FDF618D0D0D9EC7904E2
:100102007833E613F618D9FADADBD002D001D00040
:10011200D0D0D0E022C0E0C0D0E5302534F530E5C3
:10012200313535F531E5323536F532E5333537F5EA
:1001320033D0D0D0E022C0E0C0D0C3E5309534F552
:1001420030E5319535F531E5329536F532E53395C1
:1001520037F533D0D0D0E022C0E0C0D0C3E530952F
:1001620034E5319535E5329536E53395379200D051
:10017200D0D0E022C0E0C0D0C3E5349530E535955B
:1001820031E5369532E53795339200D0D0D0E02272
:10019200C0E0C0D0C200C3E53495307014E5359597
:1001A20031700EE53695327008E53795337002D21C
:1001B20000D0D0D0E0221201922000030201762268
:1001C20012019220000302015A22C0E0C0F0C0D006
:1001D200C000C001C002C003E5308534F0A4F8A914
:1001E200F0E5318534F0A429F9E435F0FAE53085FB
:1001F20035F0A429F9E5F03AFAE433FBE532853427
:10020200F0A42AFAE5F03BFBE5318535F0A42AFAA1
:10021200E5F03BFBE5308536F0A42AFAE5F03BFB3E
:10022200E5338534F0A42BFBE5328535F0A42BFBB6
:10023200E5318536F0A42BFBE5308537F0A42BFBA6
:100242008B338A3289318830D003D002D001D0007A
:10025200D0D0D0F0D0E022C0E0C0D0C000C001C0F9
:1002620002C003C0047C20E4F8F9FAFBC3E5303392
:10027200F530E53133F531E53233F532E53333F537
:1002820033E833F8E933F9EA33FAEB33FBC3E895A1
:1002920034E99535EA9536EB95374013E89534F80D
:1002A200E99535F9EA9536FAEB9537FB433001DCEF
:1002B200BBD004D003D002D001D000D0D0D0E022F5
:1002C200C00078BE00000000D8FAD00022C000C0F2
:1002D20001793278DFD8FED9FADAF6D001D00022DD
:1002E200D2911202C21202C2C2911202C222A2E729
:1002F2009281A2E69283A2E59285A2E492871202FB
:10030200C21202E2A2E39281A2E29283A2E1928568
:10031200A2E092871202C21202E222D2970202F0F5
:10032200C2970202F0C291C0027A281202CFD00212
:1003320074331203227433120322743212032274AE
:1003420028120322740C1203227401120322C00227
:100352007A021202CFD00222E493600612031DA396
:1003620080F62244C04480020322C0E0E8C4540F55
:10037200443012031DE8540F443012031DD0E02212
:1003820075C80075CDFA75CCB475CBFA75CAB4E4EC
:10039200F53DF53ED2ADD2CA22C2CFC0E0C0D005F3
:1003A2003DE53D7002053EE53DB4341BE53EB40833
:1003B20016E4F53DF53ED201B2E830030A054C05DC
:1003C2004DE54D7002054E1203D1D0D0D0E032C0BF
:1003D200E0053FE53FB41413753F00E5406006D2E7
:1003E200B7D2028011C2B7C202800BE53FC395406B
:1003F2004004C2B7C202D0E022C0E0C0D0E54175DD
:0F040200F00584B415027414F540D0D0D0E02278
:10041100C0F9A4B0999282F88090C0E0C083C082F4
:100421009004117591C6E538540F93F592E538C4DF
:10043100540F93547FF593E539540F93F594E539AF
:10044100C4540F600593F58E8003758EFF758FFF81
:10045100D082D083D0E02202041B742012031DDB62
:10046100F922781E794A7AFADAFED9FAD8F6227890
:100471000F794A7AFADAFED9FAD8F622439B544325
:100481009C01539CAB539DFE22D2A2D2A4D2A6D2F0
:10049100B0C292C294C296C2A0A2A282A482A68233
:1004A100B05002C322120470A2A282A482A682B01A
:1004B1005002C322D292D294D296D2A0C29220A24A
:1004C100077F0130A2FDD32220A4077F0230A4FDC3
:1004D100D32220A6077F0330A6FDD32220B0077FB9
:1004E1000A30B0FDD322D292C29420A2077F0430F9
:1004F100A2FDD32220A4077F0530A4FDD32220A68C
:10050100077F0630A6FDD32220B0077F0B30B0FD58
:10051100D322D294C29620A2077F0730A2FDD32214
:1005210020A4077F0830A4FDD32220A6077F09302D
:10053100A6FDD32220B0077F0C30B0FDD322D29686
:10054100C2A020A2077F0E30A2FDD32220A4077FE4
:100551000030A4FDD32220A6077F0F30A6FDD322B1
:1005610020B0077F0D30B0FDD322D2A0C3221204E8
:100571008A506AE55B603BEFB40F051205FB805DB5
:10058100B40E051205E98055EFB40A02804F40020E
:10059100804BE55DB403028044E55CB41A02803D02
:1005A100503BE55C75F00AA42FF55C055D1206DF92
:1005B100802BEFB40A08755B011205DF801FB40BB5
:1005C10008755B021205DF8014B40C08755B031219
:1005D10005DF8009B40D06755B041205DF22755C29
:1005E10000755D001206DF22E55D600DE55C75F0CA
:1005F1000A84F55C155D1206DF22E55BB40106E5B0
:100601005CF5598019B40206E55CF55A8010B40313
:1006110006E55CF5578007B40404E55CF558755BA5
:1006210000227265666C6F772074656D7020200002
:100631007265666C6F772074696D65202000736F39
:10064100616B2074656D702020202000736F616BD9
:100651002074696D652020202000566F6C746D65D3
:10066100746572207465737400C0E0C0F0C000C08E
:1006710001C002E55BB401059006238013B40205B5
:10068100900631800BB4030590063F800390064D20
:1006910012035AE55C75F06484F9E5F075F00A849B
:1006A100FAE55D601DB40306E9243012031DE55D22
:1006B100B401028006EA243012031DE5F024301251
:1006C100031D7404C3955D400A6008FA7420120387
:1006D1001DDAF9D002D001D000D0F0D0E022C0E084
:1006E1007480120322D0E012066A2275817FE4F53C
:1006F100E8F59512002E120382759DC0120E5975F0
:10070100A180120463E4F53FF540E4F580F59075AE
:100711009AAA759B82C0027AC81202CFD002120334
:1007210027C0027A321202CFD0027401120322C012
:10073100027A0A1202CFD0027402120322C0027A94
:10074100051202CFD00274801203227B1012045BC7
:1007510074C01203227B1012045B74801203227492
:100761005212031D743112031D74C01203227454FA
:1007710012031D743212031DC0027AFA1202CFD085
:1007810002D2AF7541001203FB90065B1200477461
:100791000D12003F740A12003F745412003F744559
:1007A10012003F745312003F745412003F740D1233
:1007B100003F740A12003F7541001203FB754C00A3
:1007C100754A0075583C755796755A2D7559DC75E3
:1007D1005B0012047D754D00754E00754F00C2031C
:1007E100C204C0027AFA1202CFD0021204631205C7
:1007F1006F120AF5E54A601320931E1204632093D9
:10080100183093FD754A00C203800E20930B120429
:10081100632093053093FDC204120C2F30010EC2E8
:1008210001E54F6005754F008003754F01120837D0
:100831001204630207EF300403020942C0E0C0F072
:10084100C000C001C002C0037480120322E55B60D6
:100851000612066A0208DAE54F6040745212031D5F
:10086100742012031D785A120943747312031D7404
:100871002012031D745312031D742012031D785896
:10088100120943747312031D742012031D74231281
:10089100031DE54A243012031D803E745212031DCC
:1008A100742012031D7859120943744312031D74F5
:1008B1002012031D745312031D742012031D785757
:1008C100120943744312031D742012031D74231271
:1008D100031DE54A243012031D74C012032274540F
:1008E10012031D742012031DE53AC4540F60042441
:1008F100308002742012031DE53A540F2430120394
:100901001DE539C4540F243012031D742E12031D2A
:10091100E539540F243012031D742012031D1209EE
:1009210084742012031D747312031D746512031D58
:10093100746312031DD003D002D001D000D0F0D0D7
:10094100E022C0E0C0F0C001C002E675F06484F9A5
:10095100E5F075F00A84FAE960042430800274201D
:1009610012031DE97003EA6005EA24308002742055
:1009710012031DE5F0243012031DD002D001D0F086
:10098100D0E022C0E0C0F0E54DF550E54EF55175DF
:100991005200755300755400755500E550C394E835
:1009A100F5F0E5519403400C85F050F551E5520402
:1009B100F55280E7E550C39464F5F0E551940040A9
:1009C1000C85F050F551E55304F55380E7E550C32C
:1009D100940AF5F0E5519400400C85F050F551E58D
:1009E1005404F55480E7E550F555E5526004243090
:1009F1008002742012031DE5527004E5536006E580
:100A01005324308002742012031DE5527008E5530F
:100A11007004E5546006E55424308002742012030A
:100A21001DE555243012031DD0F0D0E02275A1013F
:100A3100120BFD75330075320085A33185A2307527
:100A410034147535107536007537001201CC75A157
:100A510000120BFD75370075360085A33585A2346C
:100A61001202597534AA75350A75360075370012A8
:100A7100013875340A753500753600753700120274
:100A81005985334985324885314785304675A102FC
:100A9100120BFD75330075320085A33185A23075C7
:100AA100344A7535017536007537001201CC75A1D0
:100AB10000120BFD75370075360085A33585A2340C
:100AC100120259854937854836854735854634129E
:100AD10001177534E8753503753600753700120155
:100AE100CC120052120BA1120463120463120463AC
:100AF1001204632275A102120BFD753300753200D9
:100B010085A33185A2307534887535137536007526
:100B110037001201CC753400753510753600753704
:100B2100001202597534E8753503753600753700C2
:100B31001201CC75340C75353075360075370012DD
:100B41000259753416753500753600753700120176
:100B51001785304B7534E8753503753600753700E8
:100B61001201CC120052120BA1120B6E2290041131
:100B7100E53AC4540F93F58FE53A540F93F58EE59A
:100B810039C4540F93547FF594E539540F93F59379
:100B9100E538C4540F93F592E538540F93F591223B
:100BA100E53BC4540F443012003FE53B540F443041
:100BB10012003FE53AC4540F443012003FE53A5465
:100BC1000F443012003FE539C4540F443012003F46
:100BD100742E12003FE539540F443012003FE538BE
:100BE100C4540F443012003FE538540F4430120012
:100BF1003F740D12003F740A12003F22C0E07A19BF
:100C0100120C09DAFBD0E022C0E07BFA0000DBFC29
:100C1100D0E02246534D2053746174653A20004858
:100C210045415420494E434F525245435400C0E080
:100C3100C0D0E54A6006209503020D82B4004675D6
:100C410041001203FB20953A12046320953430953C
:100C5100FD900C14120047743112003F740D120004
:100C61003F740A12003F754A01754D00754E0075BB
:100C71004F00D203C204754C007541641203FB128C
:100C81000DBE020D7DB40140E54CB43C0DE54BC3F6
:100C910094325006120D8F020D7DE557C3954B50CE
:100CA10024900C14120047743212003F740D12008C
:100CB1003F740A12003F754A02754C0075411412C7
:100CC10003FB120DBE020D7DB4022BE558C3954CFA
:100CD1005021900C14120047743312003F740D120E
:100CE100003F740A12003F754A037541641203FB09
:100CF100120DBE020D7DB4032E754C00E559C3954E
:100D01004B5021900C14120047743412003F740DA3
:100D110012003F740A12003F754A04754114120310
:100D2100FB120DBE020D7DB4042BE55AC3954C5048
:100D310021900C14120047743512003F740D1200FB
:100D41003F740A12003F754A057541001203FB12F8
:100D51000DBE020D7DB40524E54BC3943C501D909E
:100D61000C14120047743012003F740D12003F74CE
:100D71000A12003F754A00120DDDC203D0D0D0E047
:100D8100227541001203FB754A00C20380EE7541D2
:100D9100001203FBC203754A00D20474011203223C
:100DA100C0027A021202CFD002C0E0740114120311
:100DB10067D0E0900C2012035A120DF122C0E0C05E
:100DC100D07F007EC8120E051EBEFF011FEE4F70C0
:100DD100F4C2B6D0D0D0E022120DBE22C0E074051C
:100DE100C0E0120DBE120E2CD0E01470F3D0E02240
:100DF100C0E0740AC0E0120DBE120E2CD0E01470D7
:100E0100F3D0E022C0E0D2B6120E14C2B6120E1414
:100E1100D0E022C0E0C28CC28D758CFE758A3ED2B4
:100E21008C308DFDC28CC28DD0E022C0E0C007C0E5
:100E3100067F007E64120E491EBEFF011FEE4F7039
:100E4100F4D006D007D0E022C0E0C0057DB8000094
:100E510000DDFBD005D0E022C2B65389F043890101
:050E6100C28CC28D22CD
:00000001FF
